{
  "_format": "hh-sol-artifact-1",
  "contractName": "Marketplace",
  "sourceName": "contracts/Marketplace.sol",
  "abi": [
    {
      "inputs": [
        {
          "internalType": "address",
          "name": "_audioTokenAddress",
          "type": "address"
        },
        {
          "internalType": "address",
          "name": "_musicNFTAddress",
          "type": "address"
        }
      ],
      "stateMutability": "nonpayable",
      "type": "constructor"
    },
    {
      "inputs": [],
      "name": "ReentrancyGuardReentrantCall",
      "type": "error"
    },
    {
      "anonymous": false,
      "inputs": [
        {
          "indexed": false,
          "internalType": "uint256",
          "name": "tokenId",
          "type": "uint256"
        },
        {
          "indexed": false,
          "internalType": "uint256",
          "name": "price",
          "type": "uint256"
        },
        {
          "indexed": false,
          "internalType": "address",
          "name": "seller",
          "type": "address"
        }
      ],
      "name": "Listed",
      "type": "event"
    },
    {
      "anonymous": false,
      "inputs": [
        {
          "indexed": false,
          "internalType": "uint256",
          "name": "tokenId",
          "type": "uint256"
        },
        {
          "indexed": false,
          "internalType": "uint256",
          "name": "price",
          "type": "uint256"
        },
        {
          "indexed": false,
          "internalType": "address",
          "name": "buyer",
          "type": "address"
        }
      ],
      "name": "Purchased",
      "type": "event"
    },
    {
      "inputs": [],
      "name": "audioToken",
      "outputs": [
        {
          "internalType": "contract IERC20",
          "name": "",
          "type": "address"
        }
      ],
      "stateMutability": "view",
      "type": "function"
    },
    {
      "inputs": [
        {
          "internalType": "uint256",
          "name": "tokenId",
          "type": "uint256"
        }
      ],
      "name": "buyNFT",
      "outputs": [],
      "stateMutability": "nonpayable",
      "type": "function"
    },
    {
      "inputs": [
        {
          "internalType": "uint256",
          "name": "tokenId",
          "type": "uint256"
        }
      ],
      "name": "cancelListing",
      "outputs": [],
      "stateMutability": "nonpayable",
      "type": "function"
    },
    {
      "inputs": [
        {
          "internalType": "uint256",
          "name": "tokenId",
          "type": "uint256"
        },
        {
          "internalType": "uint256",
          "name": "price",
          "type": "uint256"
        }
      ],
      "name": "listNFT",
      "outputs": [],
      "stateMutability": "nonpayable",
      "type": "function"
    },
    {
      "inputs": [
        {
          "internalType": "uint256",
          "name": "",
          "type": "uint256"
        }
      ],
      "name": "listings",
      "outputs": [
        {
          "internalType": "uint256",
          "name": "tokenId",
          "type": "uint256"
        },
        {
          "internalType": "uint256",
          "name": "price",
          "type": "uint256"
        },
        {
          "internalType": "address",
          "name": "seller",
          "type": "address"
        }
      ],
      "stateMutability": "view",
      "type": "function"
    },
    {
      "inputs": [],
      "name": "musicNFT",
      "outputs": [
        {
          "internalType": "contract IERC721",
          "name": "",
          "type": "address"
        }
      ],
      "stateMutability": "view",
      "type": "function"
    }
  ],
  "bytecode": "0x60806040523480156200001157600080fd5b506040516200107c3803806200107c833981810160405281019062000037919062000133565b600160008190555081600160006101000a81548173ffffffffffffffffffffffffffffffffffffffff021916908373ffffffffffffffffffffffffffffffffffffffff16021790555080600260006101000a81548173ffffffffffffffffffffffffffffffffffffffff021916908373ffffffffffffffffffffffffffffffffffffffff16021790555050506200017a565b600080fd5b600073ffffffffffffffffffffffffffffffffffffffff82169050919050565b6000620000fb82620000ce565b9050919050565b6200010d81620000ee565b81146200011957600080fd5b50565b6000815190506200012d8162000102565b92915050565b600080604083850312156200014d576200014c620000c9565b5b60006200015d858286016200011c565b925050602062000170858286016200011c565b9150509250929050565b610ef2806200018a6000396000f3fe608060405234801561001057600080fd5b50600436106100625760003560e01c8063305a67a81461006757806351ed82881461008357806392dd435a1461009f57806394383f14146100bd578063de74e57b146100d9578063ee577b151461010b575b600080fd5b610081600480360381019061007c91906109d5565b610129565b005b61009d600480360381019061009891906109d5565b610309565b005b6100a76105f6565b6040516100b49190610a81565b60405180910390f35b6100d760048036038101906100d29190610a9c565b61061c565b005b6100f360048036038101906100ee91906109d5565b6108da565b60405161010293929190610b0c565b60405180910390f35b610113610924565b6040516101209190610b64565b60405180910390f35b60006003600083815260200190815260200160002060405180606001604052908160008201548152602001600182015481526020016002820160009054906101000a900473ffffffffffffffffffffffffffffffffffffffff1673ffffffffffffffffffffffffffffffffffffffff1673ffffffffffffffffffffffffffffffffffffffff168152505090503373ffffffffffffffffffffffffffffffffffffffff16816040015173ffffffffffffffffffffffffffffffffffffffff1614610227576040517f08c379a000000000000000000000000000000000000000000000000000000000815260040161021e90610bdc565b60405180910390fd5b600260009054906101000a900473ffffffffffffffffffffffffffffffffffffffff1673ffffffffffffffffffffffffffffffffffffffff166342842e0e3033856040518463ffffffff1660e01b815260040161028693929190610bfc565b600060405180830381600087803b1580156102a057600080fd5b505af11580156102b4573d6000803e3d6000fd5b505050506003600083815260200190815260200160002060008082016000905560018201600090556002820160006101000a81549073ffffffffffffffffffffffffffffffffffffffff021916905550505050565b61031161094a565b60006003600083815260200190815260200160002060405180606001604052908160008201548152602001600182015481526020016002820160009054906101000a900473ffffffffffffffffffffffffffffffffffffffff1673ffffffffffffffffffffffffffffffffffffffff1673ffffffffffffffffffffffffffffffffffffffff1681525050905060008160200151116103e4576040517f08c379a00000000000000000000000000000000000000000000000000000000081526004016103db90610c7f565b60405180910390fd5b600160009054906101000a900473ffffffffffffffffffffffffffffffffffffffff1673ffffffffffffffffffffffffffffffffffffffff166323b872dd33836040015184602001516040518463ffffffff1660e01b815260040161044b93929190610bfc565b6020604051808303816000875af115801561046a573d6000803e3d6000fd5b505050506040513d601f19601f8201168201806040525081019061048e9190610cd7565b6104cd576040517f08c379a00000000000000000000000000000000000000000000000000000000081526004016104c490610d50565b60405180910390fd5b600260009054906101000a900473ffffffffffffffffffffffffffffffffffffffff1673ffffffffffffffffffffffffffffffffffffffff166342842e0e3033856040518463ffffffff1660e01b815260040161052c93929190610bfc565b600060405180830381600087803b15801561054657600080fd5b505af115801561055a573d6000803e3d6000fd5b505050506003600083815260200190815260200160002060008082016000905560018201600090556002820160006101000a81549073ffffffffffffffffffffffffffffffffffffffff021916905550507f4de343637a1e04defe1bf819dc4022be666492089901cbff4e44eaf49bdabd80828260200151336040516105e293929190610b0c565b60405180910390a1506105f3610990565b50565b600160009054906101000a900473ffffffffffffffffffffffffffffffffffffffff1681565b3373ffffffffffffffffffffffffffffffffffffffff16600260009054906101000a900473ffffffffffffffffffffffffffffffffffffffff1673ffffffffffffffffffffffffffffffffffffffff16636352211e846040518263ffffffff1660e01b815260040161068e9190610d70565b602060405180830381865afa1580156106ab573d6000803e3d6000fd5b505050506040513d601f19601f820116820180604052508101906106cf9190610db7565b73ffffffffffffffffffffffffffffffffffffffff1614610725576040517f08c379a000000000000000000000000000000000000000000000000000000000815260040161071c90610e30565b60405180910390fd5b60008111610768576040517f08c379a000000000000000000000000000000000000000000000000000000000815260040161075f90610e9c565b60405180910390fd5b600260009054906101000a900473ffffffffffffffffffffffffffffffffffffffff1673ffffffffffffffffffffffffffffffffffffffff166323b872dd3330856040518463ffffffff1660e01b81526004016107c793929190610bfc565b600060405180830381600087803b1580156107e157600080fd5b505af11580156107f5573d6000803e3d6000fd5b5050505060405180606001604052808381526020018281526020013373ffffffffffffffffffffffffffffffffffffffff1681525060036000848152602001908152602001600020600082015181600001556020820151816001015560408201518160020160006101000a81548173ffffffffffffffffffffffffffffffffffffffff021916908373ffffffffffffffffffffffffffffffffffffffff1602179055509050507fb4e5606a376800f822ae7ce93010dddb4ebd38ca6db1bdbc2d0a1de90c9079e48282336040516108ce93929190610b0c565b60405180910390a15050565b60036020528060005260406000206000915090508060000154908060010154908060020160009054906101000a900473ffffffffffffffffffffffffffffffffffffffff16905083565b600260009054906101000a900473ffffffffffffffffffffffffffffffffffffffff1681565b600260005403610986576040517f3ee5aeb500000000000000000000000000000000000000000000000000000000815260040160405180910390fd5b6002600081905550565b6001600081905550565b600080fd5b6000819050919050565b6109b28161099f565b81146109bd57600080fd5b50565b6000813590506109cf816109a9565b92915050565b6000602082840312156109eb576109ea61099a565b5b60006109f9848285016109c0565b91505092915050565b600073ffffffffffffffffffffffffffffffffffffffff82169050919050565b6000819050919050565b6000610a47610a42610a3d84610a02565b610a22565b610a02565b9050919050565b6000610a5982610a2c565b9050919050565b6000610a6b82610a4e565b9050919050565b610a7b81610a60565b82525050565b6000602082019050610a966000830184610a72565b92915050565b60008060408385031215610ab357610ab261099a565b5b6000610ac1858286016109c0565b9250506020610ad2858286016109c0565b9150509250929050565b610ae58161099f565b82525050565b6000610af682610a02565b9050919050565b610b0681610aeb565b82525050565b6000606082019050610b216000830186610adc565b610b2e6020830185610adc565b610b3b6040830184610afd565b949350505050565b6000610b4e82610a4e565b9050919050565b610b5e81610b43565b82525050565b6000602082019050610b796000830184610b55565b92915050565b600082825260208201905092915050565b7f4e6f74207468652073656c6c6572000000000000000000000000000000000000600082015250565b6000610bc6600e83610b7f565b9150610bd182610b90565b602082019050919050565b60006020820190508181036000830152610bf581610bb9565b9050919050565b6000606082019050610c116000830186610afd565b610c1e6020830185610afd565b610c2b6040830184610adc565b949350505050565b7f4e4654206e6f7420666f722073616c6500000000000000000000000000000000600082015250565b6000610c69601083610b7f565b9150610c7482610c33565b602082019050919050565b60006020820190508181036000830152610c9881610c5c565b9050919050565b60008115159050919050565b610cb481610c9f565b8114610cbf57600080fd5b50565b600081519050610cd181610cab565b92915050565b600060208284031215610ced57610cec61099a565b5b6000610cfb84828501610cc2565b91505092915050565b7f5061796d656e74206661696c6564000000000000000000000000000000000000600082015250565b6000610d3a600e83610b7f565b9150610d4582610d04565b602082019050919050565b60006020820190508181036000830152610d6981610d2d565b9050919050565b6000602082019050610d856000830184610adc565b92915050565b610d9481610aeb565b8114610d9f57600080fd5b50565b600081519050610db181610d8b565b92915050565b600060208284031215610dcd57610dcc61099a565b5b6000610ddb84828501610da2565b91505092915050565b7f4e6f7420746865206f776e657200000000000000000000000000000000000000600082015250565b6000610e1a600d83610b7f565b9150610e2582610de4565b602082019050919050565b60006020820190508181036000830152610e4981610e0d565b9050919050565b7f5072696365206d7573742062652067726561746572207468616e203000000000600082015250565b6000610e86601c83610b7f565b9150610e9182610e50565b602082019050919050565b60006020820190508181036000830152610eb581610e79565b905091905056fea2646970667358221220487849f33a6c89e4b6d7eb063e26734df5ddd9799232600fa102740cf64abb0664736f6c63430008140033",
  "linkReferences": {},
  "deployedLinkReferences": {}
}