{
  "_format": "hh-sol-artifact-1",
  "contractName": "MusicNFT",
  "sourceName": "contracts/MusicNFT.sol",
  "abi": [
    {
      "inputs": [],
      "stateMutability": "nonpayable",
      "type": "constructor"
    },
    {
      "inputs": [
        {
          "internalType": "address",
          "name": "sender",
          "type": "address"
        },
        {
          "internalType": "uint256",
          "name": "tokenId",
          "type": "uint256"
        },
        {
          "internalType": "address",
          "name": "owner",
          "type": "address"
        }
      ],
      "name": "ERC721IncorrectOwner",
      "type": "error"
    },
    {
      "inputs": [
        {
          "internalType": "address",
          "name": "operator",
          "type": "address"
        },
        {
          "internalType": "uint256",
          "name": "tokenId",
          "type": "uint256"
        }
      ],
      "name": "ERC721InsufficientApproval",
      "type": "error"
    },
    {
      "inputs": [
        {
          "internalType": "address",
          "name": "approver",
          "type": "address"
        }
      ],
      "name": "ERC721InvalidApprover",
      "type": "error"
    },
    {
      "inputs": [
        {
          "internalType": "address",
          "name": "operator",
          "type": "address"
        }
      ],
      "name": "ERC721InvalidOperator",
      "type": "error"
    },
    {
      "inputs": [
        {
          "internalType": "address",
          "name": "owner",
          "type": "address"
        }
      ],
      "name": "ERC721InvalidOwner",
      "type": "error"
    },
    {
      "inputs": [
        {
          "internalType": "address",
          "name": "receiver",
          "type": "address"
        }
      ],
      "name": "ERC721InvalidReceiver",
      "type": "error"
    },
    {
      "inputs": [
        {
          "internalType": "address",
          "name": "sender",
          "type": "address"
        }
      ],
      "name": "ERC721InvalidSender",
      "type": "error"
    },
    {
      "inputs": [
        {
          "internalType": "uint256",
          "name": "tokenId",
          "type": "uint256"
        }
      ],
      "name": "ERC721NonexistentToken",
      "type": "error"
    },
    {
      "inputs": [
        {
          "internalType": "address",
          "name": "owner",
          "type": "address"
        }
      ],
      "name": "OwnableInvalidOwner",
      "type": "error"
    },
    {
      "inputs": [
        {
          "internalType": "address",
          "name": "account",
          "type": "address"
        }
      ],
      "name": "OwnableUnauthorizedAccount",
      "type": "error"
    },
    {
      "anonymous": false,
      "inputs": [
        {
          "indexed": true,
          "internalType": "address",
          "name": "owner",
          "type": "address"
        },
        {
          "indexed": true,
          "internalType": "address",
          "name": "approved",
          "type": "address"
        },
        {
          "indexed": true,
          "internalType": "uint256",
          "name": "tokenId",
          "type": "uint256"
        }
      ],
      "name": "Approval",
      "type": "event"
    },
    {
      "anonymous": false,
      "inputs": [
        {
          "indexed": true,
          "internalType": "address",
          "name": "owner",
          "type": "address"
        },
        {
          "indexed": true,
          "internalType": "address",
          "name": "operator",
          "type": "address"
        },
        {
          "indexed": false,
          "internalType": "bool",
          "name": "approved",
          "type": "bool"
        }
      ],
      "name": "ApprovalForAll",
      "type": "event"
    },
    {
      "anonymous": false,
      "inputs": [
        {
          "indexed": false,
          "internalType": "uint256",
          "name": "_fromTokenId",
          "type": "uint256"
        },
        {
          "indexed": false,
          "internalType": "uint256",
          "name": "_toTokenId",
          "type": "uint256"
        }
      ],
      "name": "BatchMetadataUpdate",
      "type": "event"
    },
    {
      "anonymous": false,
      "inputs": [
        {
          "indexed": false,
          "internalType": "uint256",
          "name": "_tokenId",
          "type": "uint256"
        }
      ],
      "name": "MetadataUpdate",
      "type": "event"
    },
    {
      "anonymous": false,
      "inputs": [
        {
          "indexed": true,
          "internalType": "address",
          "name": "previousOwner",
          "type": "address"
        },
        {
          "indexed": true,
          "internalType": "address",
          "name": "newOwner",
          "type": "address"
        }
      ],
      "name": "OwnershipTransferred",
      "type": "event"
    },
    {
      "anonymous": false,
      "inputs": [
        {
          "indexed": true,
          "internalType": "address",
          "name": "from",
          "type": "address"
        },
        {
          "indexed": true,
          "internalType": "address",
          "name": "to",
          "type": "address"
        },
        {
          "indexed": true,
          "internalType": "uint256",
          "name": "tokenId",
          "type": "uint256"
        }
      ],
      "name": "Transfer",
      "type": "event"
    },
    {
      "inputs": [],
      "name": "admin",
      "outputs": [
        {
          "internalType": "address",
          "name": "",
          "type": "address"
        }
      ],
      "stateMutability": "view",
      "type": "function"
    },
    {
      "inputs": [
        {
          "internalType": "address",
          "name": "to",
          "type": "address"
        },
        {
          "internalType": "uint256",
          "name": "tokenId",
          "type": "uint256"
        }
      ],
      "name": "approve",
      "outputs": [],
      "stateMutability": "nonpayable",
      "type": "function"
    },
    {
      "inputs": [
        {
          "internalType": "address",
          "name": "owner",
          "type": "address"
        }
      ],
      "name": "balanceOf",
      "outputs": [
        {
          "internalType": "uint256",
          "name": "",
          "type": "uint256"
        }
      ],
      "stateMutability": "view",
      "type": "function"
    },
    {
      "inputs": [
        {
          "internalType": "uint256",
          "name": "tokenId",
          "type": "uint256"
        }
      ],
      "name": "getApproved",
      "outputs": [
        {
          "internalType": "address",
          "name": "",
          "type": "address"
        }
      ],
      "stateMutability": "view",
      "type": "function"
    },
    {
      "inputs": [
        {
          "internalType": "address",
          "name": "owner",
          "type": "address"
        },
        {
          "internalType": "address",
          "name": "operator",
          "type": "address"
        }
      ],
      "name": "isApprovedForAll",
      "outputs": [
        {
          "internalType": "bool",
          "name": "",
          "type": "bool"
        }
      ],
      "stateMutability": "view",
      "type": "function"
    },
    {
      "inputs": [
        {
          "internalType": "address",
          "name": "to",
          "type": "address"
        },
        {
          "internalType": "string",
          "name": "tokenURI",
          "type": "string"
        }
      ],
      "name": "mintNFT",
      "outputs": [],
      "stateMutability": "nonpayable",
      "type": "function"
    },
    {
      "inputs": [],
      "name": "name",
      "outputs": [
        {
          "internalType": "string",
          "name": "",
          "type": "string"
        }
      ],
      "stateMutability": "view",
      "type": "function"
    },
    {
      "inputs": [],
      "name": "nextTokenId",
      "outputs": [
        {
          "internalType": "uint256",
          "name": "",
          "type": "uint256"
        }
      ],
      "stateMutability": "view",
      "type": "function"
    },
    {
      "inputs": [],
      "name": "owner",
      "outputs": [
        {
          "internalType": "address",
          "name": "",
          "type": "address"
        }
      ],
      "stateMutability": "view",
      "type": "function"
    },
    {
      "inputs": [
        {
          "internalType": "uint256",
          "name": "tokenId",
          "type": "uint256"
        }
      ],
      "name": "ownerOf",
      "outputs": [
        {
          "internalType": "address",
          "name": "",
          "type": "address"
        }
      ],
      "stateMutability": "view",
      "type": "function"
    },
    {
      "inputs": [],
      "name": "renounceOwnership",
      "outputs": [],
      "stateMutability": "nonpayable",
      "type": "function"
    },
    {
      "inputs": [
        {
          "internalType": "address",
          "name": "from",
          "type": "address"
        },
        {
          "internalType": "address",
          "name": "to",
          "type": "address"
        },
        {
          "internalType": "uint256",
          "name": "tokenId",
          "type": "uint256"
        }
      ],
      "name": "safeTransferFrom",
      "outputs": [],
      "stateMutability": "nonpayable",
      "type": "function"
    },
    {
      "inputs": [
        {
          "internalType": "address",
          "name": "from",
          "type": "address"
        },
        {
          "internalType": "address",
          "name": "to",
          "type": "address"
        },
        {
          "internalType": "uint256",
          "name": "tokenId",
          "type": "uint256"
        },
        {
          "internalType": "bytes",
          "name": "data",
          "type": "bytes"
        }
      ],
      "name": "safeTransferFrom",
      "outputs": [],
      "stateMutability": "nonpayable",
      "type": "function"
    },
    {
      "inputs": [
        {
          "internalType": "address",
          "name": "operator",
          "type": "address"
        },
        {
          "internalType": "bool",
          "name": "approved",
          "type": "bool"
        }
      ],
      "name": "setApprovalForAll",
      "outputs": [],
      "stateMutability": "nonpayable",
      "type": "function"
    },
    {
      "inputs": [
        {
          "internalType": "bytes4",
          "name": "interfaceId",
          "type": "bytes4"
        }
      ],
      "name": "supportsInterface",
      "outputs": [
        {
          "internalType": "bool",
          "name": "",
          "type": "bool"
        }
      ],
      "stateMutability": "view",
      "type": "function"
    },
    {
      "inputs": [],
      "name": "symbol",
      "outputs": [
        {
          "internalType": "string",
          "name": "",
          "type": "string"
        }
      ],
      "stateMutability": "view",
      "type": "function"
    },
    {
      "inputs": [
        {
          "internalType": "uint256",
          "name": "tokenId",
          "type": "uint256"
        }
      ],
      "name": "tokenURI",
      "outputs": [
        {
          "internalType": "string",
          "name": "",
          "type": "string"
        }
      ],
      "stateMutability": "view",
      "type": "function"
    },
    {
      "inputs": [
        {
          "internalType": "address",
          "name": "from",
          "type": "address"
        },
        {
          "internalType": "address",
          "name": "to",
          "type": "address"
        },
        {
          "internalType": "uint256",
          "name": "tokenId",
          "type": "uint256"
        }
      ],
      "name": "transferFrom",
      "outputs": [],
      "stateMutability": "nonpayable",
      "type": "function"
    },
    {
      "inputs": [
        {
          "internalType": "address",
          "name": "newOwner",
          "type": "address"
        }
      ],
      "name": "transferOwnership",
      "outputs": [],
      "stateMutability": "nonpayable",
      "type": "function"
    }
  ],
  "bytecode": "0x60806040523480156200001157600080fd5b50336040518060400160405280600881526020017f4d757369634e46540000000000000000000000000000000000000000000000008152506040518060400160405280600481526020017f4d4e4654000000000000000000000000000000000000000000000000000000008152508160009081620000909190620004b3565b508060019081620000a29190620004b3565b505050600073ffffffffffffffffffffffffffffffffffffffff168173ffffffffffffffffffffffffffffffffffffffff16036200011a5760006040517f1e4fbdf7000000000000000000000000000000000000000000000000000000008152600401620001119190620005df565b60405180910390fd5b6200012b816200017360201b60201c565b5033600960006101000a81548173ffffffffffffffffffffffffffffffffffffffff021916908373ffffffffffffffffffffffffffffffffffffffff160217905550620005fc565b6000600760009054906101000a900473ffffffffffffffffffffffffffffffffffffffff16905081600760006101000a81548173ffffffffffffffffffffffffffffffffffffffff021916908373ffffffffffffffffffffffffffffffffffffffff1602179055508173ffffffffffffffffffffffffffffffffffffffff168173ffffffffffffffffffffffffffffffffffffffff167f8be0079c531659141344cd1fd0a4f28419497f9722a3daafe3b4186f6b6457e060405160405180910390a35050565b600081519050919050565b7f4e487b7100000000000000000000000000000000000000000000000000000000600052604160045260246000fd5b7f4e487b7100000000000000000000000000000000000000000000000000000000600052602260045260246000fd5b60006002820490506001821680620002bb57607f821691505b602082108103620002d157620002d062000273565b5b50919050565b60008190508160005260206000209050919050565b60006020601f8301049050919050565b600082821b905092915050565b6000600883026200033b7fffffffffffffffffffffffffffffffffffffffffffffffffffffffffffffffff82620002fc565b620003478683620002fc565b95508019841693508086168417925050509392505050565b6000819050919050565b6000819050919050565b6000620003946200038e62000388846200035f565b62000369565b6200035f565b9050919050565b6000819050919050565b620003b08362000373565b620003c8620003bf826200039b565b84845462000309565b825550505050565b600090565b620003df620003d0565b620003ec818484620003a5565b505050565b5b81811015620004145762000408600082620003d5565b600181019050620003f2565b5050565b601f82111562000463576200042d81620002d7565b6200043884620002ec565b8101602085101562000448578190505b620004606200045785620002ec565b830182620003f1565b50505b505050565b600082821c905092915050565b6000620004886000198460080262000468565b1980831691505092915050565b6000620004a3838362000475565b9150826002028217905092915050565b620004be8262000239565b67ffffffffffffffff811115620004da57620004d962000244565b5b620004e68254620002a2565b620004f382828562000418565b600060209050601f8311600181146200052b576000841562000516578287015190505b62000522858262000495565b86555062000592565b601f1984166200053b86620002d7565b60005b8281101562000565578489015182556001820191506020850194506020810190506200053e565b8683101562000585578489015162000581601f89168262000475565b8355505b6001600288020188555050505b505050505050565b600073ffffffffffffffffffffffffffffffffffffffff82169050919050565b6000620005c7826200059a565b9050919050565b620005d981620005ba565b82525050565b6000602082019050620005f66000830184620005ce565b92915050565b6126e2806200060c6000396000f3fe608060405234801561001057600080fd5b50600436106101215760003560e01c806375794a3c116100ad578063c87b56dd11610071578063c87b56dd146102f4578063e985e9c514610324578063eacabe1414610354578063f2fde38b14610370578063f851a4401461038c57610121565b806375794a3c146102625780638da5cb5b1461028057806395d89b411461029e578063a22cb465146102bc578063b88d4fde146102d857610121565b806323b872dd116100f457806323b872dd146101c057806342842e0e146101dc5780636352211e146101f857806370a0823114610228578063715018a61461025857610121565b806301ffc9a71461012657806306fdde0314610156578063081812fc14610174578063095ea7b3146101a4575b600080fd5b610140600480360381019061013b9190611b3a565b6103aa565b60405161014d9190611b82565b60405180910390f35b61015e61040b565b60405161016b9190611c2d565b60405180910390f35b61018e60048036038101906101899190611c85565b61049d565b60405161019b9190611cf3565b60405180910390f35b6101be60048036038101906101b99190611d3a565b6104b9565b005b6101da60048036038101906101d59190611d7a565b6104cf565b005b6101f660048036038101906101f19190611d7a565b6105d1565b005b610212600480360381019061020d9190611c85565b6105f1565b60405161021f9190611cf3565b60405180910390f35b610242600480360381019061023d9190611dcd565b610603565b60405161024f9190611e09565b60405180910390f35b6102606106bd565b005b61026a6106d1565b6040516102779190611e09565b60405180910390f35b6102886106d7565b6040516102959190611cf3565b60405180910390f35b6102a6610701565b6040516102b39190611c2d565b60405180910390f35b6102d660048036038101906102d19190611e50565b610793565b005b6102f260048036038101906102ed9190611fc5565b6107a9565b005b61030e60048036038101906103099190611c85565b6107ce565b60405161031b9190611c2d565b60405180910390f35b61033e60048036038101906103399190612048565b6108e1565b60405161034b9190611b82565b60405180910390f35b61036e60048036038101906103699190612129565b610975565b005b61038a60048036038101906103859190611dcd565b6109b1565b005b610394610a37565b6040516103a19190611cf3565b60405180910390f35b6000634906490660e01b7bffffffffffffffffffffffffffffffffffffffffffffffffffffffff1916827bffffffffffffffffffffffffffffffffffffffffffffffffffffffff19161480610404575061040382610a5d565b5b9050919050565b60606000805461041a906121b4565b80601f0160208091040260200160405190810160405280929190818152602001828054610446906121b4565b80156104935780601f1061046857610100808354040283529160200191610493565b820191906000526020600020905b81548152906001019060200180831161047657829003601f168201915b5050505050905090565b60006104a882610b3f565b506104b282610bc7565b9050919050565b6104cb82826104c6610c04565b610c0c565b5050565b600073ffffffffffffffffffffffffffffffffffffffff168273ffffffffffffffffffffffffffffffffffffffff16036105415760006040517f64a0ae920000000000000000000000000000000000000000000000000000000081526004016105389190611cf3565b60405180910390fd5b60006105558383610550610c04565b610c1e565b90508373ffffffffffffffffffffffffffffffffffffffff168173ffffffffffffffffffffffffffffffffffffffff16146105cb578382826040517f64283d7b0000000000000000000000000000000000000000000000000000000081526004016105c2939291906121e5565b60405180910390fd5b50505050565b6105ec838383604051806020016040528060008152506107a9565b505050565b60006105fc82610b3f565b9050919050565b60008073ffffffffffffffffffffffffffffffffffffffff168273ffffffffffffffffffffffffffffffffffffffff16036106765760006040517f89c62b6400000000000000000000000000000000000000000000000000000000815260040161066d9190611cf3565b60405180910390fd5b600360008373ffffffffffffffffffffffffffffffffffffffff1673ffffffffffffffffffffffffffffffffffffffff168152602001908152602001600020549050919050565b6106c5610e38565b6106cf6000610ebf565b565b60085481565b6000600760009054906101000a900473ffffffffffffffffffffffffffffffffffffffff16905090565b606060018054610710906121b4565b80601f016020809104026020016040519081016040528092919081815260200182805461073c906121b4565b80156107895780601f1061075e57610100808354040283529160200191610789565b820191906000526020600020905b81548152906001019060200180831161076c57829003601f168201915b5050505050905090565b6107a561079e610c04565b8383610f85565b5050565b6107b48484846104cf565b6107c86107bf610c04565b858585856110f4565b50505050565b60606107d982610b3f565b5060006006600084815260200190815260200160002080546107fa906121b4565b80601f0160208091040260200160405190810160405280929190818152602001828054610826906121b4565b80156108735780601f1061084857610100808354040283529160200191610873565b820191906000526020600020905b81548152906001019060200180831161085657829003601f168201915b5050505050905060006108846112a5565b905060008151036108995781925050506108dc565b6000825111156108ce5780826040516020016108b6929190612258565b604051602081830303815290604052925050506108dc565b6108d7846112bc565b925050505b919050565b6000600560008473ffffffffffffffffffffffffffffffffffffffff1673ffffffffffffffffffffffffffffffffffffffff16815260200190815260200160002060008373ffffffffffffffffffffffffffffffffffffffff1673ffffffffffffffffffffffffffffffffffffffff16815260200190815260200160002060009054906101000a900460ff16905092915050565b61097d610e38565b61098982600854611325565b61099560085482611343565b600860008154809291906109a8906122ab565b91905055505050565b6109b9610e38565b600073ffffffffffffffffffffffffffffffffffffffff168173ffffffffffffffffffffffffffffffffffffffff1603610a2b5760006040517f1e4fbdf7000000000000000000000000000000000000000000000000000000008152600401610a229190611cf3565b60405180910390fd5b610a3481610ebf565b50565b600960009054906101000a900473ffffffffffffffffffffffffffffffffffffffff1681565b60007f80ac58cd000000000000000000000000000000000000000000000000000000007bffffffffffffffffffffffffffffffffffffffffffffffffffffffff1916827bffffffffffffffffffffffffffffffffffffffffffffffffffffffff19161480610b2857507f5b5e139f000000000000000000000000000000000000000000000000000000007bffffffffffffffffffffffffffffffffffffffffffffffffffffffff1916827bffffffffffffffffffffffffffffffffffffffffffffffffffffffff1916145b80610b385750610b378261139f565b5b9050919050565b600080610b4b83611409565b9050600073ffffffffffffffffffffffffffffffffffffffff168173ffffffffffffffffffffffffffffffffffffffff1603610bbe57826040517f7e273289000000000000000000000000000000000000000000000000000000008152600401610bb59190611e09565b60405180910390fd5b80915050919050565b60006004600083815260200190815260200160002060009054906101000a900473ffffffffffffffffffffffffffffffffffffffff169050919050565b600033905090565b610c198383836001611446565b505050565b600080610c2a84611409565b9050600073ffffffffffffffffffffffffffffffffffffffff168373ffffffffffffffffffffffffffffffffffffffff1614610c6c57610c6b81848661160b565b5b600073ffffffffffffffffffffffffffffffffffffffff168173ffffffffffffffffffffffffffffffffffffffff1614610cfd57610cae600085600080611446565b6001600360008373ffffffffffffffffffffffffffffffffffffffff1673ffffffffffffffffffffffffffffffffffffffff168152602001908152602001600020600082825403925050819055505b600073ffffffffffffffffffffffffffffffffffffffff168573ffffffffffffffffffffffffffffffffffffffff1614610d80576001600360008773ffffffffffffffffffffffffffffffffffffffff1673ffffffffffffffffffffffffffffffffffffffff168152602001908152602001600020600082825401925050819055505b846002600086815260200190815260200160002060006101000a81548173ffffffffffffffffffffffffffffffffffffffff021916908373ffffffffffffffffffffffffffffffffffffffff160217905550838573ffffffffffffffffffffffffffffffffffffffff168273ffffffffffffffffffffffffffffffffffffffff167fddf252ad1be2c89b69c2b068fc378daa952ba7f163c4a11628f55a4df523b3ef60405160405180910390a4809150509392505050565b610e40610c04565b73ffffffffffffffffffffffffffffffffffffffff16610e5e6106d7565b73ffffffffffffffffffffffffffffffffffffffff1614610ebd57610e81610c04565b6040517f118cdaa7000000000000000000000000000000000000000000000000000000008152600401610eb49190611cf3565b60405180910390fd5b565b6000600760009054906101000a900473ffffffffffffffffffffffffffffffffffffffff16905081600760006101000a81548173ffffffffffffffffffffffffffffffffffffffff021916908373ffffffffffffffffffffffffffffffffffffffff1602179055508173ffffffffffffffffffffffffffffffffffffffff168173ffffffffffffffffffffffffffffffffffffffff167f8be0079c531659141344cd1fd0a4f28419497f9722a3daafe3b4186f6b6457e060405160405180910390a35050565b600073ffffffffffffffffffffffffffffffffffffffff168273ffffffffffffffffffffffffffffffffffffffff1603610ff657816040517f5b08ba18000000000000000000000000000000000000000000000000000000008152600401610fed9190611cf3565b60405180910390fd5b80600560008573ffffffffffffffffffffffffffffffffffffffff1673ffffffffffffffffffffffffffffffffffffffff16815260200190815260200160002060008473ffffffffffffffffffffffffffffffffffffffff1673ffffffffffffffffffffffffffffffffffffffff16815260200190815260200160002060006101000a81548160ff0219169083151502179055508173ffffffffffffffffffffffffffffffffffffffff168373ffffffffffffffffffffffffffffffffffffffff167f17307eab39ab6107e8899845ad3d59bd9653f200f220920489ca2b5937696c31836040516110e79190611b82565b60405180910390a3505050565b60008373ffffffffffffffffffffffffffffffffffffffff163b111561129e578273ffffffffffffffffffffffffffffffffffffffff1663150b7a02868685856040518563ffffffff1660e01b81526004016111539493929190612348565b6020604051808303816000875af192505050801561118f57506040513d601f19601f8201168201806040525081019061118c91906123a9565b60015b611213573d80600081146111bf576040519150601f19603f3d011682016040523d82523d6000602084013e6111c4565b606091505b50600081510361120b57836040517f64a0ae920000000000000000000000000000000000000000000000000000000081526004016112029190611cf3565b60405180910390fd5b805181602001fd5b63150b7a0260e01b7bffffffffffffffffffffffffffffffffffffffffffffffffffffffff1916817bffffffffffffffffffffffffffffffffffffffffffffffffffffffff19161461129c57836040517f64a0ae920000000000000000000000000000000000000000000000000000000081526004016112939190611cf3565b60405180910390fd5b505b5050505050565b606060405180602001604052806000815250905090565b60606112c782610b3f565b5060006112d26112a5565b905060008151116112f2576040518060200160405280600081525061131d565b806112fc846116cf565b60405160200161130d929190612258565b6040516020818303038152906040525b915050919050565b61133f82826040518060200160405280600081525061179d565b5050565b806006600084815260200190815260200160002090816113639190612582565b507ff8e1a15aba9398e019f0b49df1a4fde98ee17ae345cb5f6b5e2c27f5033e8ce7826040516113939190611e09565b60405180910390a15050565b60007f01ffc9a7000000000000000000000000000000000000000000000000000000007bffffffffffffffffffffffffffffffffffffffffffffffffffffffff1916827bffffffffffffffffffffffffffffffffffffffffffffffffffffffff1916149050919050565b60006002600083815260200190815260200160002060009054906101000a900473ffffffffffffffffffffffffffffffffffffffff169050919050565b808061147f5750600073ffffffffffffffffffffffffffffffffffffffff168273ffffffffffffffffffffffffffffffffffffffff1614155b156115b357600061148f84610b3f565b9050600073ffffffffffffffffffffffffffffffffffffffff168373ffffffffffffffffffffffffffffffffffffffff16141580156114fa57508273ffffffffffffffffffffffffffffffffffffffff168173ffffffffffffffffffffffffffffffffffffffff1614155b801561150d575061150b81846108e1565b155b1561154f57826040517fa9fbf51f0000000000000000000000000000000000000000000000000000000081526004016115469190611cf3565b60405180910390fd5b81156115b157838573ffffffffffffffffffffffffffffffffffffffff168273ffffffffffffffffffffffffffffffffffffffff167f8c5be1e5ebec7d5bd14f71427d1e84f3dd0314c0f7b2291e5b200ac8c7c3b92560405160405180910390a45b505b836004600085815260200190815260200160002060006101000a81548173ffffffffffffffffffffffffffffffffffffffff021916908373ffffffffffffffffffffffffffffffffffffffff16021790555050505050565b6116168383836117c1565b6116ca57600073ffffffffffffffffffffffffffffffffffffffff168373ffffffffffffffffffffffffffffffffffffffff160361168b57806040517f7e2732890000000000000000000000000000000000000000000000000000000081526004016116829190611e09565b60405180910390fd5b81816040517f177e802f0000000000000000000000000000000000000000000000000000000081526004016116c1929190612654565b60405180910390fd5b505050565b6060600060016116de84611882565b01905060008167ffffffffffffffff8111156116fd576116fc611e9a565b5b6040519080825280601f01601f19166020018201604052801561172f5781602001600182028036833780820191505090505b509050600082602001820190505b600115611792578080600190039150507f3031323334353637383961626364656600000000000000000000000000000000600a86061a8153600a85816117865761178561267d565b5b0494506000850361173d575b819350505050919050565b6117a783836119d5565b6117bc6117b2610c04565b60008585856110f4565b505050565b60008073ffffffffffffffffffffffffffffffffffffffff168373ffffffffffffffffffffffffffffffffffffffff161415801561187957508273ffffffffffffffffffffffffffffffffffffffff168473ffffffffffffffffffffffffffffffffffffffff16148061183a575061183984846108e1565b5b8061187857508273ffffffffffffffffffffffffffffffffffffffff1661186083610bc7565b73ffffffffffffffffffffffffffffffffffffffff16145b5b90509392505050565b600080600090507a184f03e93ff9f4daa797ed6e38ed64bf6a1f01000000000000000083106118e0577a184f03e93ff9f4daa797ed6e38ed64bf6a1f01000000000000000083816118d6576118d561267d565b5b0492506040810190505b6d04ee2d6d415b85acef8100000000831061191d576d04ee2d6d415b85acef810000000083816119135761191261267d565b5b0492506020810190505b662386f26fc10000831061194c57662386f26fc1000083816119425761194161267d565b5b0492506010810190505b6305f5e1008310611975576305f5e100838161196b5761196a61267d565b5b0492506008810190505b612710831061199a5761271083816119905761198f61267d565b5b0492506004810190505b606483106119bd57606483816119b3576119b261267d565b5b0492506002810190505b600a83106119cc576001810190505b80915050919050565b600073ffffffffffffffffffffffffffffffffffffffff168273ffffffffffffffffffffffffffffffffffffffff1603611a475760006040517f64a0ae92000000000000000000000000000000000000000000000000000000008152600401611a3e9190611cf3565b60405180910390fd5b6000611a5583836000610c1e565b9050600073ffffffffffffffffffffffffffffffffffffffff168173ffffffffffffffffffffffffffffffffffffffff1614611ac95760006040517f73c6ac6e000000000000000000000000000000000000000000000000000000008152600401611ac09190611cf3565b60405180910390fd5b505050565b6000604051905090565b600080fd5b600080fd5b60007fffffffff0000000000000000000000000000000000000000000000000000000082169050919050565b611b1781611ae2565b8114611b2257600080fd5b50565b600081359050611b3481611b0e565b92915050565b600060208284031215611b5057611b4f611ad8565b5b6000611b5e84828501611b25565b91505092915050565b60008115159050919050565b611b7c81611b67565b82525050565b6000602082019050611b976000830184611b73565b92915050565b600081519050919050565b600082825260208201905092915050565b60005b83811015611bd7578082015181840152602081019050611bbc565b60008484015250505050565b6000601f19601f8301169050919050565b6000611bff82611b9d565b611c098185611ba8565b9350611c19818560208601611bb9565b611c2281611be3565b840191505092915050565b60006020820190508181036000830152611c478184611bf4565b905092915050565b6000819050919050565b611c6281611c4f565b8114611c6d57600080fd5b50565b600081359050611c7f81611c59565b92915050565b600060208284031215611c9b57611c9a611ad8565b5b6000611ca984828501611c70565b91505092915050565b600073ffffffffffffffffffffffffffffffffffffffff82169050919050565b6000611cdd82611cb2565b9050919050565b611ced81611cd2565b82525050565b6000602082019050611d086000830184611ce4565b92915050565b611d1781611cd2565b8114611d2257600080fd5b50565b600081359050611d3481611d0e565b92915050565b60008060408385031215611d5157611d50611ad8565b5b6000611d5f85828601611d25565b9250506020611d7085828601611c70565b9150509250929050565b600080600060608486031215611d9357611d92611ad8565b5b6000611da186828701611d25565b9350506020611db286828701611d25565b9250506040611dc386828701611c70565b9150509250925092565b600060208284031215611de357611de2611ad8565b5b6000611df184828501611d25565b91505092915050565b611e0381611c4f565b82525050565b6000602082019050611e1e6000830184611dfa565b92915050565b611e2d81611b67565b8114611e3857600080fd5b50565b600081359050611e4a81611e24565b92915050565b60008060408385031215611e6757611e66611ad8565b5b6000611e7585828601611d25565b9250506020611e8685828601611e3b565b9150509250929050565b600080fd5b600080fd5b7f4e487b7100000000000000000000000000000000000000000000000000000000600052604160045260246000fd5b611ed282611be3565b810181811067ffffffffffffffff82111715611ef157611ef0611e9a565b5b80604052505050565b6000611f04611ace565b9050611f108282611ec9565b919050565b600067ffffffffffffffff821115611f3057611f2f611e9a565b5b611f3982611be3565b9050602081019050919050565b82818337600083830152505050565b6000611f68611f6384611f15565b611efa565b905082815260208101848484011115611f8457611f83611e95565b5b611f8f848285611f46565b509392505050565b600082601f830112611fac57611fab611e90565b5b8135611fbc848260208601611f55565b91505092915050565b60008060008060808587031215611fdf57611fde611ad8565b5b6000611fed87828801611d25565b9450506020611ffe87828801611d25565b935050604061200f87828801611c70565b925050606085013567ffffffffffffffff8111156120305761202f611add565b5b61203c87828801611f97565b91505092959194509250565b6000806040838503121561205f5761205e611ad8565b5b600061206d85828601611d25565b925050602061207e85828601611d25565b9150509250929050565b600067ffffffffffffffff8211156120a3576120a2611e9a565b5b6120ac82611be3565b9050602081019050919050565b60006120cc6120c784612088565b611efa565b9050828152602081018484840111156120e8576120e7611e95565b5b6120f3848285611f46565b509392505050565b600082601f8301126121105761210f611e90565b5b81356121208482602086016120b9565b91505092915050565b600080604083850312156121405761213f611ad8565b5b600061214e85828601611d25565b925050602083013567ffffffffffffffff81111561216f5761216e611add565b5b61217b858286016120fb565b9150509250929050565b7f4e487b7100000000000000000000000000000000000000000000000000000000600052602260045260246000fd5b600060028204905060018216806121cc57607f821691505b6020821081036121df576121de612185565b5b50919050565b60006060820190506121fa6000830186611ce4565b6122076020830185611dfa565b6122146040830184611ce4565b949350505050565b600081905092915050565b600061223282611b9d565b61223c818561221c565b935061224c818560208601611bb9565b80840191505092915050565b60006122648285612227565b91506122708284612227565b91508190509392505050565b7f4e487b7100000000000000000000000000000000000000000000000000000000600052601160045260246000fd5b60006122b682611c4f565b91507fffffffffffffffffffffffffffffffffffffffffffffffffffffffffffffffff82036122e8576122e761227c565b5b600182019050919050565b600081519050919050565b600082825260208201905092915050565b600061231a826122f3565b61232481856122fe565b9350612334818560208601611bb9565b61233d81611be3565b840191505092915050565b600060808201905061235d6000830187611ce4565b61236a6020830186611ce4565b6123776040830185611dfa565b8181036060830152612389818461230f565b905095945050505050565b6000815190506123a381611b0e565b92915050565b6000602082840312156123bf576123be611ad8565b5b60006123cd84828501612394565b91505092915050565b60008190508160005260206000209050919050565b60006020601f8301049050919050565b600082821b905092915050565b6000600883026124387fffffffffffffffffffffffffffffffffffffffffffffffffffffffffffffffff826123fb565b61244286836123fb565b95508019841693508086168417925050509392505050565b6000819050919050565b600061247f61247a61247584611c4f565b61245a565b611c4f565b9050919050565b6000819050919050565b61249983612464565b6124ad6124a582612486565b848454612408565b825550505050565b600090565b6124c26124b5565b6124cd818484612490565b505050565b5b818110156124f1576124e66000826124ba565b6001810190506124d3565b5050565b601f82111561253657612507816123d6565b612510846123eb565b8101602085101561251f578190505b61253361252b856123eb565b8301826124d2565b50505b505050565b600082821c905092915050565b60006125596000198460080261253b565b1980831691505092915050565b60006125728383612548565b9150826002028217905092915050565b61258b82611b9d565b67ffffffffffffffff8111156125a4576125a3611e9a565b5b6125ae82546121b4565b6125b98282856124f5565b600060209050601f8311600181146125ec57600084156125da578287015190505b6125e48582612566565b86555061264c565b601f1984166125fa866123d6565b60005b82811015612622578489015182556001820191506020850194506020810190506125fd565b8683101561263f578489015161263b601f891682612548565b8355505b6001600288020188555050505b505050505050565b60006040820190506126696000830185611ce4565b6126766020830184611dfa565b9392505050565b7f4e487b7100000000000000000000000000000000000000000000000000000000600052601260045260246000fdfea264697066735822122046bd296acdadfa9b16b1747b50519177e297b08113f545543847813bc3f6e82564736f6c63430008140033",
  "linkReferences": {},
  "deployedLinkReferences": {}
}